{
    "contractName": "Auth",
    "abi": [
        {
            "constant": true,
            "inputs": [
                {
                    "internalType": "address",
                    "name": "user",
                    "type": "address"
                }
            ],
            "name": "isAdministrator",
            "outputs": [
                {
                    "internalType": "bool",
                    "name": "",
                    "type": "bool"
                }
            ],
            "payable": false,
            "stateMutability": "view",
            "type": "function"
        },
        {
            "inputs": [],
            "payable": false,
            "stateMutability": "nonpayable",
            "type": "constructor"
        }
    ],
    "bytecode": "6080604052348015600f57600080fd5b50600080546001600160a01b0319163317905560ad806100306000396000f3fe6080604052348015600f57600080fd5b506004361060285760003560e01c80630a2eb30114602d575b600080fd5b605060048036036020811015604157600080fd5b50356001600160a01b03166064565b604080519115158252519081900360200190f35b6000546001600160a01b039081169116149056fea265627a7a7231582039f8485de703dbb3e7ba8c1d8c18d9bb1798bb3f0815812d97cfd8213c2569ef64736f6c634300050b0032",
    "sourcePath": "/home/calin/Playground/oz_tutorial/contracts/access-control/Auth.sol",
    "compiler": {
        "name": "solc",
        "version": "0.5.11+commit.c082d0b4"
    },
    "functionHashes": {
        "isAdministrator(address)": "0a2eb301"
    },
    "gasEstimates": {
        "creation": {
            "codeDepositCost": "34600",
            "executionCost": "20322",
            "totalCost": "54922"
        },
        "external": {
            "isAdministrator(address)": "475"
        }
    }
}